:0C00000076C0FECFFDCFFCCFFBCFFACFC7
:10000C00F9CFF8CFF7CFF6CFF5CFF4CFF3CFF2CFC0
:10001C0097C0F0CFEFCFEECFEDCF001F0000000068
:10002C001F00001F101010101F00001F18181818A8
:10003C001F00001F1C1C1C1C1F00001F1E1E1E1E50
:10004C001F00001F1F1F1F1F1F0003070F1F0F077D
:10005C000300181C1E1F1E1C18000000E8034000A3
:10006C00563D25322E326620202000493D25642045
:10007C006D41202000493D25642E256425642564AE
:10008C00410020484F535345494E20544F4D415247
:10009C0049200020202020562D41204D455445520A
:1000AC00202020002020504F5745522053555050AF
:1000BC004C5900002D4E414E000080C001002D4EC9
:1000CC00414E00494E46000001000200660001004E
:1000DC0090016A0002009501C60001009C01C80055
:1000EC000000F894EE27ECBBF1E0FBBFEBBFE5BFE3
:1000FC00F8E1F1BDE1BD8DE0A2E0BB27ED938A955F
:10010C00E9F780E094E0A0E6ED930197E9F7E4EDE0
:10011C00F0E085919591009761F0A591B5910590CE
:10012C001590BF01F00105900D920197E1F7FB01CD
:10013C00F0CFEFE5EDBFE4E0EEBFC0E6D1E0F5C0F7
:10014C00EA93FA93E4B1F5B1E0938E01F0938F0149
:10015C00F991E9911895AA93E0919001A881EA2B65
:10016C00E7B9A4E6B0E066D8E5B7EF78E069E5BF9B
:10017C008895EF77E5BFE0918E01F0918F01E2C693
:10018C00E0E0E0939001A0E0E6DFA3E0B0E01CDA51
:10019C0066277727C5D8DF01CB01EAE9F9E96CECD2
:1001AC0072E496D9E0939101F093920160939301DC
:1001BC0070939401E6E6F1E0FA93EA93ECE6F0E052
:1001CC00FA93EA93E0919101F0919201609193017D
:1001DC007091940184DA84E0ABD52896F2010895ED
:1001EC00E0E0E0939001A1E0B6DFAEE1B0E0ECD945
:1001FC006627772795D8DF01CB01E4E1FEEA63E2BD
:10020C0071E466D954D84F01EAE0F0E08E169F06EF
:10021C0010F488249924E0E0E0939001F40108950F
:10022C00E0E0EA93A0E0F0D5A6E6B1E030D6E8EE47
:10023C00F3E08E169F0680F4EAE7F1E0FA93EA9376
:10024C00E7E7F0E0FA93EA93F4016627772747DAB9
:10025C0084E06ED528964FC0D401E8EEF3E013DAB3
:10026C00DF01E4E6F0E0CBD9E0936001F0936101AB
:10027C00D401E8EEF3E007DADF01EAE0F0E0BFD901
:10028C00DF01EAE0F0E0FFD9E0936201F093630153
:10029C00D401E8EEF3E0F7D9DF01EAE0F0E0F3D9BE
:1002AC00E0936401F0936501EAE7F1E0FA93EA93D5
:1002BC00E1E8F0E0FA93EA93D401E8EEF3E09FD999
:1002CC00662777270CDAE0916001F09161016627CF
:1002DC00772705DAE0916201F091630166277727B1
:1002EC00FED9E0916401F091650166277727F7D973
:1002FC0080E11ED56496E8E0EA93A0E085D5AAE7F4
:10030C00B1E0C5D5E0E0EA93A1E07ED5E0919101A2
:10031C00F09192016091930170919401CAD7EA9384
:10032C00EEE1EA93A0E163D00895E0EFE1BBEFE0EA
:10033C00E2BBE0919001E7B9EDE8E6B9EBB7E06418
:10034C00EBBFE2E0E5BFE0E4EABFA0E1C2D5789400
:10035C00AEE8B0E0ABD5E0E0EA93A1E055D5AFE96B
:10036C00B0E0A4D5A0EDB7E065D75FD5A0EBB0E0C9
:10037C009DD5A8EEB3E05ED7E6E2F0E0FA93EA93FF
:10038C00A0E066D0EEE2F0E0FA93EA93A1E060D050
:10039C00E6E3F0E0FA93EA93A2E05AD0EEE3F0E061
:1003AC00FA93EA93A3E054D0E6E4F0E0FA93EA93EC
:1003BC00A4E04ED0EEE4F0E0FA93EA93A5E048D046
:1003CC00E6E5F0E0FA93EA93A6E042D0EEE5F0E041
:1003DC00FA93EA93A7E03CD0D3DEACE2B1E02AD7A3
:1003EC00FFDE1EDFA4E6B0E025D7F6CFFFCFAA9341
:1003FC0093D9AC81E6E0EA9F9001AE81B0E0F901BF
:10040C00E3D89F01ED81F0E0D901F9D89F0110E00C
:10041C00EC811E17D0F4E6E0E19FF00135962E1723
:10042C003F0770F4E6E0E19FF0012E173F0710F450
:10043C0000E005C0D901E6E0F0E025D90E2F01C09F
:10044C0005E0A02F04D51F5FE3CF6DD92796089543
:10045C00AA9364D9EA81EE0FEE0FEE0FE0640E2F33
:10046C0010E0183060F40A930395EC81FD8131960D
:10047C00EC83FD833197A491BFD41F5FF2CF38C0BA
:10048C00BA93AA934BD9AA81BB8112960FD93097F4
:10049C0049F1AA81BB81149609D98F01309761F07B
:1004AC000230E0E01E07E8F0F80131978F01AA81D5
:1004BC00BB811496ED93FC93AA81BB811296ED91AE
:1004CC00FD913196FE93EE933197AC81A083AA8176
:1004DC00BB81ECD8FF232AF0ED91FD913196FE9370
:1004EC00EE9306C0AA81BB81EFEFFFEFED93FC9377
:1004FC001CD925960895BA93AA932497E0E0E88333
:10050C00E983E0E8EA83EFE3EB8306D9EE85FF8528
:10051C00EF3FAFEFFA0741F4E885F985FA93EA93D8
:10052C00A0ECB0E011D52CC1EF3FAFE7FA0741F4D6
:10053C00E885F985FA93EA93A1ECB0E005D520C1E2
:10054C00AB85A73010F0E6E0EB871B85E12F11504F
:10055C00E03071F0AC81BD818E819F81E0E0F0E0F4
:10056C0060E271E467D7EC83FD836E837F83EECF0B
:10057C00EC85FD856E857F85C9D879F430E0AC813A
:10058C00BD818E819F81E0E0F0E060E271E452D7A2
:10059C00EC83FD836E837F8373C03B85EC81FD818F
:1005AC006E817F81AC85BD858E859F85D6D709F000
:1005BC0008F423C0AC81BD818E819F81E0E0F0E026
:1005CC0060E271E437D7EC83FD836E837F83EC812B
:1005DC00FD816E817F81AC85BD858E859F85BDD764
:1005EC0058F0EDECFCEC6CEC7DE324D7EC87FD874C
:1005FC006E877F873F5FEBCF22C0EC81FD816E81E0
:10060C007F81AC85BD858E859F85A7D758F4E0E0AA
:10061C00F0E060E271E40ED7EC87FD876E877F8790
:10062C003150EBCFAC81BD818E819F81E0E0F0E059
:10063C0060E271E4FFD6EC83FD836E837F83EC85EF
:10064C00FD856E857F85A0E0B0E080E09FE3A2D6BB
:10065C00EC87FD876E877F87EC81FD816E817F81C2
:10066C00AC85BD858E859F8578D750F0EDECFCEC84
:10067C006CEC7DE3DFD6EC87FD876E877F873F5F71
:10068C0010E0EB85E11708F447C0AC81BD818E8189
:10069C009F81EDECFCEC6CEC7DE3CCD6A0E0B0E003
:1006AC0080E09FE377D6DF01CB01A4D4EC83FD83FC
:1006BC006E837F83AC85BD858E859F8509D7F7D5E5
:1006CC000E2FA885B9851196A887B9871197E02FA9
:1006DC00E05DEC93E02FFF276627772721D6AC81CE
:1006EC00BD818E819F81A6D6AC85BD858E859F856B
:1006FC0000D849D6EC87FD876E877F87E12F1F5F77
:10070C00E03009F0BECFA885B9851196A887B987C6
:10071C001197EEE2EC93B5CFE885F9853196E88731
:10072C00F9873197AA85A08330302CF43195A885B0
:10073C00B985EDE203C0A885B985EBE2EC93E885B9
:10074C00F9853196E887F9873196E887F9873197EB
:10075C00BF01A32FEAE04ED7E05DDB01EC93E88507
:10076C00F9853196E887F9873197BF01A32FEAE025
:10077C007ED7E05DDB01EC93A885B985E0E0EC93D6
:10078C00D2D760960895BA93AA93EF976197C2D780
:10079C0010E0FE01E85AFF4F0190F081E02DE88750
:1007AC00F987FE01EA5AFF4F0190F081E02DEE83AC
:1007BC00FF83AE81BF81E0E0F0E0ED93FC93DE01BE
:1007CC00A45ABF4FED91FD913196FE93EE93319764
:1007DC00E4912E2FE03009F4A4C2E12FE03059F45B
:1007EC00253211F411E006C02A93AF81B885E98552
:1007FC00FA85099595C2E130E1F4253239F42A9352
:10080C00AF81B885E985FA85099589C212E0E0E0E7
:10081C00ED8B00E02D3211F401E082C22B3219F481
:10082C00EBE2ED8B7DC2203219F4E0E2ED8B78C265
:10083C0002C0E23039F450E013E0203311F40068C8
:10084C006FC202C0E33091F4203310F02A3308F069
:10085C0007C0AAE05A9F502DE22FE0535E0F60C2F2
:10086C0040E02E3211F414E05BC20FC0E43099F476
:10087C00203310F02A3308F008C00062AAE04A9F27
:10088C00402DE22FE0534E0F4BC22C3619F4026070
:10089C0015E046C203C0E53009F042C2E22FE33650
:1008AC00A1F4FE01E65AFF4F0190F081E02D349740
:1008BC00DE01A65ABF4FED93FC93A481AA93AF819E
:1008CC00B885E985FA8509952AC2E53411F0E53633
:1008DC0009F403C0E63609F060C0FE017696EE8797
:1008EC00FF87DE01A65ABF4F0D90BC91A02DE2D61A
:1008FC00EA87FB876C877D87FE01E65AFF4F0190E4
:10090C00F081E02D3497DE01A65ABF4FED93FC9396
:10091C00AD85AA2322F0AD89AB3261F01DC0EA850A
:10092C00FB856C857D8590D4EA87FB876C877D87FA
:10093C00EDE2ED8B07FF08C0ED89EA93AF81B88536
:10094C00E985FA85099508C0EE85FF853196EE8715
:10095C00FF873197AD89A08305FF46E0263651F419
:10096C00EA85FB856C857D85BAD64A93AB89BC89B3
:10097C0051D30AC0EA85FB856C857D85B0D64A9338
:10098C002A93AC89BD89B7DDFE017696EE87FF8789
:10099C00AE85BF85E6D21E2F41C0E337D9F4FE01E8
:1009AC00E65AFF4F0190F081E02D3497DE01A65AF4
:1009BC00BF4FED93FC93DE01A65ABF4F0D90BC9137
:1009CC00A02D149673D6EE87FF87AE85BF85C9D24E
:1009DC001E2F1DC0E03739F5FE01E65AFF4F01907E
:1009EC00F081E02D3497DE01A65ABF4FED93FC93B6
:1009FC00DE01A65ABF4F0D90BC91A02D149656D671
:100A0C00EE87FF87AE85BF85B8D21E2F08600F77A3
:100A1C00403011F0411708F001C0142F40E0E0E025
:100A2C00EC8B30E0A4C0E43611F0E93611F404602C
:100A3C0002C0E537C1F4EAE0EC8B01FF0AC0E0E04C
:100A4C00FAEC6AE97BE3E88BF98B6A8B7B8B1AE017
:100A5C0028C0E0E1F7E260E070E0E88BF98B6A8B8C
:100A6C007B8B15E01EC0E83511F4086003C0E83735
:100A7C0009F055C1E0E1EC8B01FF0AC0E0E0F0E0C9
:100A8C0060E070E1E88BF98B6A8B7B8B18E009C016
:100A9C00E0E0F0E160E070E0E88BF98B6A8B7B8B37
:100AAC0014E0403011F00F7701C041E001FF15C098
:100ABC00FE01E65AFF4F0190F081E02D3497DE01E4
:100ACC00A65ABF4FED93FC93DE01A65ABF4F0D9073
:100ADC00BC91A02D1496EED52EC002FF16C0FE01BF
:100AEC00E65AFF4F0190F081E02D3497DE01A65AB3
:100AFC00BF4FED93FC93DE01A65ABF4F0D90BC91F6
:100B0C00A02D1496D3D55BD516C0FE01E65AFF4F27
:100B1C000190F081E02D3497DE01A65ABF4FED9382
:100B2C00FC93DE01A65ABF4F0D90BC91A02D1496DC
:100B3C00BDD566277727EA87FB876C877D8702FF01
:100B4C0015C0AD85AA235AF4EA85FB856C857D8595
:100B5C0028D5EA87FB876C877D87EDE2ED8BED89E5
:100B6C00E03019F01F5F4F5F01C00B7F342F00FD89
:100B7C0018C0151710F4351708F013C007FF08C07C
:100B8C0002FF04C00B7F2D89115001C020E301C06E
:100B9C0020E22A93AF81B885E985FA8509955150F1
:100BAC00E8CF141720F5006102FF15C00B7FED890B
:100BBC00EA93DE01A95ABF4F0D90BC91A02DFE0106
:100BCC00E75AFF4F0190F081E02D0995503009F064
:100BDC00515011504150E0E3EA93AF81B885E9855B
:100BEC00FA850995503009F051504150DACF312F28
:100BFC00EC89E030D9F43030C1F003FF06C0EE854B
:100C0C00FF852591EE87FF8705C0AE85BF852D91A9
:100C1C00AE87BF872A93AF81B885E985FA85099598
:100C2C00503009F051503150E6CF6CC0E889F98949
:100C3C006A897B89AA85BB858C859D85F3D42E2FEB
:100C4C002A3030F003FF02C0295C01C0295A01C0D0
:100C5C00205D04FD30C0213360F4A889B9898A89EC
:100C6C009B89A130E0E0BE07E0E08E07E0E09E0744
:100C7C0009F40BC0431740F4531710F000FF01C0E8
:100C8C0023C020E207FF17C020E3006102FF13C05E
:100C9C000B7FED89EA93DE01A95ABF4F0D90BC91F1
:100CAC00A02DFE01E75AFF4F0190F081E02D099530
:100CBC00503009F051502A93AF81B885E985FA85F7
:100CCC000995503009F051503150E889F9896A89F9
:100CDC007B89AA85BB858C859D85D8D4EA87FB87C3
:100CEC006C877D87EC89A889B9898A899B89FF27BC
:100CFC006627772797D4E88BF98B6A8B7B8B06D585
:100D0C0009F094CF00FF0BC0503049F05150E0E295
:100D1C00EA93AF81B885E985FA850995F5CF10E09E
:100D2C004ECDAE81BF81C2D4FCD4EF966F960895A0
:100D3C00FF92F82E2697F0D4DE011C962ED4B6D452
:100D4C00309719F4EFEFFFEF22C0DE01169625D491
:100D5C008D01DE011C9621D4A9D4EE83FF83E0E043
:100D6C00E887E987DE011A9618D4A0D4FA93EA939F
:100D7C001A930A93E6E4F2E0FA93EA93DE011A96E8
:100D8C0002DD9F01AE81BF81E0E0EC93F901CBD491
:100D9C002A96FF900895AA93E881E07111F0C09A09
:100DAC0001C0C098E881E07211F0979A01C0979841
:100DBC00E881E07411F0969A01C09698E881E07889
:100DCC0011F0959A01C0959885E08A95F1F7C19A32
:100DDC008DE08A95F1F7C1988DE08A95F1F7B2C054
:100DEC00AA93A881D8DFE881E295E883A881D3DFB4
:100DFC0085E88A95F1F7A6C0AA93A981F1DFC39A79
:100E0C00A881EEDFC3980FC0AA93E881F0E0EB56FF
:100E1C00FE4FE081A981AE0FE3DFE981E0939901F8
:100E2C00E881E0939A0122960895A2E0D9DFA3E02D
:100E3C00B0E000D2ACE0D4DFA1E0D2DFA3E0B0E0C0
:100E4C00F9D1E0E0E0939A01E09399010895AA9317
:100E5C00A881AA3031F0E0919B01A0919901AE17C5
:100E6C0060F0E0E0EA93A0919A01AF5FA0939A0141
:100E7C00CBDFA881AA3009F465C0E0919901EF5F3E
:100E8C00E0939901C39AA881ABDFC3985BC0BA9376
:100E9C00AA931A93A981BA81ED91A983BA831E2FC3
:100EAC00E03019F0A12FD3DFF5CF10C0BA93AA937D
:100EBC001A93E981FA813196E983FA833197E491A7
:100ECC001E2FE03019F0A12FC2DFF3CF188123962B
:100EDC000895AA93B89A8F9A8E9A8D9AB99ABB9ABA
:100EEC00BA9AC198C398C298E881E0939B01E058E4
:100EFC00E0939701E881E054E0939801A4E1B0E01D
:100F0C0099D1A0E348DF88EC90E00197F1F7A0E3DA
:100F1C0042DF88EC90E00197F1F7A0E33CDF88EC2E
:100F2C0090E00197F1F7A0E236DF88EC90E00197B2
:100F3C00F1F7A8E255DFA4E053DFA5E851DFA6E006
:100F4C004FDF73DF21960895BA93AA93E991F99133
:100F5C00A991B991CD0105900D920020E1F7FC010A
:100F6C000895BA93AA93A991B991EE27FF276D9191
:100F7C00662311F03196FBCF0895BA93AA93AA2752
:100F8C00BB27E991F9910590002011F01196FBCF48
:100F9C00FD010895A9D37B816A81F981E88177FBF2
:100FAC00770F67FD7160972F9E5781F078F098311D
:100FBC0090F4AA27BB27882708948795B795A795FF
:100FCC009A95D1F7EA23FB23682305C0E894772789
:100FDC00EE27FF2766276F77769508F4606877F918
:100FEC00A991B99189919991EA17FB07680779073B
:100FFC0097FB089579D369D3CDDF6CD311F460D30B
:10100C0007C0EEF75DD3A0E0B0E080E89FE3BBD172
:10101C0024960895BA93AA932497E0E0E883E98391
:10102C00EA83EFE3EB837AD3EB85FC85EF3FAFEFFD
:10103C00FA0741F4EE81FF81FA93EA93AAECB0E04F
:10104C0083DFF5C0EF3FAFE7FA0741F4EE81FF8194
:10105C00FA93EA93ABECB0E077DFE9C0AC85AA2356
:10106C008AF4E985FA856B857C85EED0E987FA8769
:10107C006B877C87AE81BF811196AE83BF8311973E
:10108C00EDE2EC93A885A73010F0E6E0E887188530
:10109C00E12F1150E03071F0AA81BB818C819D81D0
:1010AC00EDECFCEC6CEC7DE3C5D1EA83FB836C834B
:1010BC007D83EECFEA81FB816C817D81A985BA8528
:1010CC008B859C8567D1E987FA876B877C8710E0D5
:1010DC00E0E0F0E060E87FE3EA83FB836C837D83F0
:1010EC00EA81FB816C817D81A985BA858B859C8584
:1010FC0034D2C8F0AA81BB818C819D81E0E0F0E004
:10110C0060E271E497D1EA83FB836C837D831F5F7C
:10111C00173240F0EE81FF81FA93EA93AFECB0E026
:10112C0013DF85C0DDCF103049F4AE81BF8111963D
:10113C00AE83BF831197E0E3EC933EC0E12F1150D7
:10114C00E03009F439C0AA81BB818C819D81EDEC22
:10115C00FCEC6CEC7DE36ED1A0E0B0E080E09FE3B2
:10116C0019D1DF01CB0146DFEA83FB836C837D83DE
:10117C00A985BA858B859C85ABD199D00E2FAE8174
:10118C00BF811196AE83BF831197E02FE05DEC9386
:10119C00E02FF0E0AA81BB818C819D8110D2C0D060
:1011AC0049D1A985BA858B859C85A3D2ECD0E987DA
:1011BC00FA876B877C87C2CFE885E030A1F1AE81DE
:1011CC00BF811196AE83BF831197EEE2EC93E88555
:1011DC00E150E887EF5F39F1A985BA858B859C854D
:1011EC00E0E0F0E060E271E425D1E987FA876B87F3
:1011FC007C875DD00E2FAE81BF811196AE83BF83ED
:10120C001197E02FE05DEC93E02FF0E0A985BA8513
:10121C008B859C85D4D184D06CD2B5D0E987FA87E4
:10122C006B877C87D4CFAE81BF81E0E0EC937DD21D
:10123C002D960895109639F080ED97E00197F1F70F
:10124C00A8951197C9F7089530976040704009F040
:10125C0070580895552342F4503811F4E0FF04C03F
:10126C003196691F791F6BF050E8572711F45F9383
:10127C00CFC05F3F31F0660F000C57956795752F07
:10128C0008955F9300200AF0CFC0C8C050E8192E13
:10129C001522880F991F9527550F879550E8072E13
:1012AC000522660F771F7527550F6795089568946B
:1012BC0001C0E8945F93F2DF703818F07F3F08F4B8
:1012CC00A7C056E1571BAAF4519558300EF459306B
:1012DC0030F0EFEFFFEF6FEF7FE777F91AC077276A
:1012EC005523B9F0EE0FFF1F661F771F5A95D1F7E4
:1012FC0010C07727583028F0EF2FF62F672F585053
:10130C00F9CF552331F076956795F795E7955A9572
:10131C00D1F700200AF445D15F910895689401C07B
:10132C00E894309760407040B1F0002426F07723A9
:10133C0012F4009436D1172E7EE1112032F07A95FA
:10134C00EE0FFF1F661F111CF9CFEF2FF62F612D2B
:10135C005F938ADF5F9108954F93AF01FD01DA012E
:10136C00AB01BC01CA01402D012C142E4F910895E4
:10137C00EA0FFB1F681F0895E095F0956095EF5FED
:10138C00FF4F6F4F08955F9381DF903871F150E8F4
:10139C00152604C05F937ADF903839F1703821F14B
:1013AC00572F591B2BF112F4D7DFFACF583118F005
:1013BC00AA27BB278827583028F0AB2FB82F8827AF
:1013CC005850F9CF552329F08695B795A7955A957E
:1013DC00D9F7502D512572F0CBDF38F46795F7957E
:1013EC00E795739513F420C0B7DF3EDF5F91089546
:1013FC00D8F7FBCFEA1BFB0B680B51F010F40094F1
:10140C00BBDF662392F3EE0FFF1F661F7A95CBF7B7
:10141C00EE27FF27662777275F910895EFEFFFEF01
:10142C006FE77FEF5F910895EFEFFFEF6FE77FE7D7
:10143C005F9108955F932ADF703851F3903841F330
:10144C0001240894791F23F41CF300203AF3ECCF09
:10145C000F921F932F933F934F9311272227992776
:10146C00689FA0018F9F302D410D591F6B9F300D30
:10147C00411D591F8E9F27D0BF9F25D06A9F23D017
:10148C00BE9F1DD0AF9F1BD0AE9F110D291F391FC2
:10149C00491F591FE32FF42F652F522F4F913F9166
:1014AC002F911F910F9066232AF0550FEE1FFF1FEF
:1014BC00661F02C073954BF2CDDE5F910895100D3F
:1014CC00211D391F02C0200D311D491F591F0895C0
:1014DC005F93DCDE703821F411200AF49FCFA4CF87
:1014EC00903809F495CF01240894970B1BF4D4F38E
:1014FC000020F3CF792F1F932F933F934F931124F9
:10150C001127222733274427552790E2AE17BF0710
:10151C008607410730F0AE1BBF0B860B410B0894BE
:10152C0001C08894551F221F331F111CAA1FBB1FFB
:10153C00881F441F9A9551F7F901612D4F913F91E6
:10154C002F911F91662332F0550FEE1FFF1F661F60
:10155C007A9543F27FDE5F91089599239AF0772371
:10156C0042F0971748F029F4AE17BF07860720F012
:10157C0031F0989488940895989408940895189448
:10158C00889408957723C2F7971798F3A9F7EA1769
:10159C00FB07680788F399F3ECCF0024AF0DB01D5F
:1015AC000895F09560957095E195FF4F6F4F7F4FC3
:1015BC000895FE2FFF0FFF0B6F2F7F2F08956F2FB6
:1015CC00660F660B762F0895FA9FF02DEB9FF00DAA
:1015DC00EA9FE02DF10D0895002498E0AA0F001C5D
:1015EC000E1A10F40E0E01C0A1609A95B9F7EA2FED
:1015FC00A02D08954FD0F0DF0EF4E195089500244E
:10160C00112490E1AA0FBB1F001C111C0E1A1F0AFB
:10161C0018F40E0E1F1E01C0A1609A9599F7FD01DA
:10162C00D00108953F934F935F93002411244427D6
:10163C00552730E2AA0FBB1F881F991F001C111CD5
:10164C00441F551F0E1A1F0A460B570B28F40E0E7B
:10165C001F1E461F571F01C0A1603A9559F7FD0187
:10166C00BC01D001CA015F914F913F910895E8945C
:10167C00A7FF02C0A1956894E7FDE195ADDFEA2FC5
:10168C000EF4E1950895BBDFFD010895CBDFFD015C
:10169C00BC010895E894E7FF02C0E1956894A7FFA8
:1016AC0004C0A19500F8039400FA0895ED91FC9103
:1016BC0011970895ED91FD916D917C91139708957B
:1016CC00E881F9816A817B810895A881B9818A8139
:1016DC009B810895E883F9836A837B8308957A93C9
:1016EC006A93FA93EA9308959A938A93BA93AA9376
:1016FC000895182E862F612D192E972F712D1B2EC4
:10170C00BF2FF12D1A2EAE2FE12D0895309760408A
:10171C00704008955A934A933A932A931A930A93D2
:10172C0008955D814C813B812A811981088108953E
:00000001FF
